{
  "_format": "hh-sol-artifact-1",
  "contractName": "Messenger",
  "sourceName": "contracts/Messenger.sol",
  "abi": [
    {
      "inputs": [
        {
          "internalType": "uint256",
          "name": "_fee",
          "type": "uint256"
        }
      ],
      "stateMutability": "nonpayable",
      "type": "constructor"
    },
    {
      "anonymous": false,
      "inputs": [
        {
          "indexed": true,
          "internalType": "address",
          "name": "_sender",
          "type": "address"
        },
        {
          "indexed": false,
          "internalType": "string",
          "name": "_author",
          "type": "string"
        },
        {
          "indexed": false,
          "internalType": "string",
          "name": "_text",
          "type": "string"
        }
      ],
      "name": "MessageSent",
      "type": "event"
    },
    {
      "inputs": [],
      "name": "fee",
      "outputs": [
        {
          "internalType": "uint256",
          "name": "",
          "type": "uint256"
        }
      ],
      "stateMutability": "view",
      "type": "function"
    },
    {
      "inputs": [],
      "name": "getAllMessages",
      "outputs": [
        {
          "components": [
            {
              "internalType": "address",
              "name": "sender",
              "type": "address"
            },
            {
              "internalType": "string",
              "name": "author",
              "type": "string"
            },
            {
              "internalType": "string",
              "name": "message",
              "type": "string"
            },
            {
              "internalType": "uint256",
              "name": "donation",
              "type": "uint256"
            }
          ],
          "internalType": "struct Messenger.MessageObject[]",
          "name": "",
          "type": "tuple[]"
        }
      ],
      "stateMutability": "view",
      "type": "function"
    },
    {
      "inputs": [],
      "name": "getTotalMessages",
      "outputs": [
        {
          "internalType": "uint256",
          "name": "",
          "type": "uint256"
        }
      ],
      "stateMutability": "view",
      "type": "function"
    },
    {
      "inputs": [
        {
          "internalType": "uint256",
          "name": "",
          "type": "uint256"
        }
      ],
      "name": "messages",
      "outputs": [
        {
          "internalType": "address",
          "name": "sender",
          "type": "address"
        },
        {
          "internalType": "string",
          "name": "author",
          "type": "string"
        },
        {
          "internalType": "string",
          "name": "message",
          "type": "string"
        },
        {
          "internalType": "uint256",
          "name": "donation",
          "type": "uint256"
        }
      ],
      "stateMutability": "view",
      "type": "function"
    },
    {
      "inputs": [
        {
          "internalType": "string",
          "name": "_messageAuthor",
          "type": "string"
        },
        {
          "internalType": "string",
          "name": "_messageText",
          "type": "string"
        }
      ],
      "name": "sendMessage",
      "outputs": [],
      "stateMutability": "payable",
      "type": "function"
    },
    {
      "inputs": [
        {
          "internalType": "uint256",
          "name": "_fee",
          "type": "uint256"
        }
      ],
      "name": "setFee",
      "outputs": [],
      "stateMutability": "payable",
      "type": "function"
    },
    {
      "inputs": [],
      "name": "withdraw",
      "outputs": [],
      "stateMutability": "nonpayable",
      "type": "function"
    }
  ],
  "bytecode": "0x608060405234801561001057600080fd5b5060405161130d38038061130d83398181016040528101906100329190610094565b336000806101000a81548173ffffffffffffffffffffffffffffffffffffffff021916908373ffffffffffffffffffffffffffffffffffffffff16021790555080600181905550506100de565b60008151905061008e816100c7565b92915050565b6000602082840312156100a657600080fd5b60006100b48482850161007f565b91505092915050565b6000819050919050565b6100d0816100bd565b81146100db57600080fd5b50565b611220806100ed6000396000f3fe6080604052600436106100705760003560e01c8063467fba0f1161004e578063467fba0f146100f757806353f5e3801461011357806369fe0e2d1461013e578063ddca3f431461015a57610070565b80630d80fefd14610075578063147e9108146100b55780633ccfd60b146100e0575b600080fd5b34801561008157600080fd5b5061009c60048036038101906100979190610aba565b610185565b6040516100ac9493929190610d33565b60405180910390f35b3480156100c157600080fd5b506100ca6102f5565b6040516100d79190610e7f565b60405180910390f35b3480156100ec57600080fd5b506100f5610302565b005b610111600480360381019061010c9190610a4e565b6103f9565b005b34801561011f57600080fd5b5061012861065e565b6040516101359190610d86565b60405180910390f35b61015860048036038101906101539190610aba565b610841565b005b34801561016657600080fd5b5061016f610928565b60405161017c9190610e7f565b60405180910390f35b6002818154811061019557600080fd5b90600052602060002090600402016000915090508060000160009054906101000a900473ffffffffffffffffffffffffffffffffffffffff16908060010180546101de90610fd4565b80601f016020809104026020016040519081016040528092919081815260200182805461020a90610fd4565b80156102575780601f1061022c57610100808354040283529160200191610257565b820191906000526020600020905b81548152906001019060200180831161023a57829003601f168201915b50505050509080600201805461026c90610fd4565b80601f016020809104026020016040519081016040528092919081815260200182805461029890610fd4565b80156102e55780601f106102ba576101008083540402835291602001916102e5565b820191906000526020600020905b8154815290600101906020018083116102c857829003601f168201915b5050505050908060030154905084565b6000600280549050905090565b60008054906101000a900473ffffffffffffffffffffffffffffffffffffffff1673ffffffffffffffffffffffffffffffffffffffff163373ffffffffffffffffffffffffffffffffffffffff1614610390576040517f08c379a000000000000000000000000000000000000000000000000000000000815260040161038790610e3f565b60405180910390fd5b60008054906101000a900473ffffffffffffffffffffffffffffffffffffffff1673ffffffffffffffffffffffffffffffffffffffff166108fc479081150290604051600060405180830381858888f193505050501580156103f6573d6000803e3d6000fd5b50565b60006002346104089190611037565b14610448576040517f08c379a000000000000000000000000000000000000000000000000000000000815260040161043f90610e5f565b60405180910390fd5b60015434101561048d576040517f08c379a000000000000000000000000000000000000000000000000000000000815260040161048490610dff565b60405180910390fd5b60008251116104d1576040517f08c379a00000000000000000000000000000000000000000000000000000000081526004016104c890610e1f565b60405180910390fd5b6000815111610515576040517f08c379a000000000000000000000000000000000000000000000000000000000815260040161050c90610ddf565b60405180910390fd5b600060405180608001604052803373ffffffffffffffffffffffffffffffffffffffff168152602001848152602001838152602001348152509050600281908060018154018082558091505060019003906000526020600020906004020160009091909190915060008201518160000160006101000a81548173ffffffffffffffffffffffffffffffffffffffff021916908373ffffffffffffffffffffffffffffffffffffffff16021790555060208201518160010190805190602001906105df92919061092e565b5060408201518160020190805190602001906105fc92919061092e565b506060820151816003015550503373ffffffffffffffffffffffffffffffffffffffff167fa28e1491c51b8b54b2b2e251e3f173c980335242a11fd96356da52e57bc455378484604051610651929190610da8565b60405180910390a2505050565b60606002805480602002602001604051908101604052809291908181526020016000905b8282101561083857838290600052602060002090600402016040518060800160405290816000820160009054906101000a900473ffffffffffffffffffffffffffffffffffffffff1673ffffffffffffffffffffffffffffffffffffffff1673ffffffffffffffffffffffffffffffffffffffff16815260200160018201805461070b90610fd4565b80601f016020809104026020016040519081016040528092919081815260200182805461073790610fd4565b80156107845780601f1061075957610100808354040283529160200191610784565b820191906000526020600020905b81548152906001019060200180831161076757829003601f168201915b5050505050815260200160028201805461079d90610fd4565b80601f01602080910402602001604051908101604052809291908181526020018280546107c990610fd4565b80156108165780601f106107eb57610100808354040283529160200191610816565b820191906000526020600020905b8154815290600101906020018083116107f957829003601f168201915b5050505050815260200160038201548152505081526020019060010190610682565b50505050905090565b60008054906101000a900473ffffffffffffffffffffffffffffffffffffffff1673ffffffffffffffffffffffffffffffffffffffff163373ffffffffffffffffffffffffffffffffffffffff16146108cf576040517f08c379a00000000000000000000000000000000000000000000000000000000081526004016108c690610e3f565b60405180910390fd5b60006002346108de9190611037565b1461091e576040517f08c379a000000000000000000000000000000000000000000000000000000000815260040161091590610e5f565b60405180910390fd5b8060018190555050565b60015481565b82805461093a90610fd4565b90600052602060002090601f01602090048101928261095c57600085556109a3565b82601f1061097557805160ff19168380011785556109a3565b828001600101855582156109a3579182015b828111156109a2578251825591602001919060010190610987565b5b5090506109b091906109b4565b5090565b5b808211156109cd5760008160009055506001016109b5565b5090565b60006109e46109df84610ebf565b610e9a565b9050828152602081018484840111156109fc57600080fd5b610a07848285610f92565b509392505050565b600082601f830112610a2057600080fd5b8135610a308482602086016109d1565b91505092915050565b600081359050610a48816111d3565b92915050565b60008060408385031215610a6157600080fd5b600083013567ffffffffffffffff811115610a7b57600080fd5b610a8785828601610a0f565b925050602083013567ffffffffffffffff811115610aa457600080fd5b610ab085828601610a0f565b9150509250929050565b600060208284031215610acc57600080fd5b6000610ada84828501610a39565b91505092915050565b6000610aef8383610cab565b905092915050565b610b0081610f56565b82525050565b610b0f81610f56565b82525050565b6000610b2082610f00565b610b2a8185610f23565b935083602082028501610b3c85610ef0565b8060005b85811015610b785784840389528151610b598582610ae3565b9450610b6483610f16565b925060208a01995050600181019050610b40565b50829750879550505050505092915050565b6000610b9582610f0b565b610b9f8185610f34565b9350610baf818560208601610fa1565b610bb8816110f5565b840191505092915050565b6000610bce82610f0b565b610bd88185610f45565b9350610be8818560208601610fa1565b610bf1816110f5565b840191505092915050565b6000610c09601783610f45565b9150610c1482611106565b602082019050919050565b6000610c2c600e83610f45565b9150610c378261112f565b602082019050919050565b6000610c4f601683610f45565b9150610c5a82611158565b602082019050919050565b6000610c72601283610f45565b9150610c7d82611181565b602082019050919050565b6000610c95601083610f45565b9150610ca0826111aa565b602082019050919050565b6000608083016000830151610cc36000860182610af7565b5060208301518482036020860152610cdb8282610b8a565b91505060408301518482036040860152610cf58282610b8a565b9150506060830151610d0a6060860182610d15565b508091505092915050565b610d1e81610f88565b82525050565b610d2d81610f88565b82525050565b6000608082019050610d486000830187610b06565b8181036020830152610d5a8186610bc3565b90508181036040830152610d6e8185610bc3565b9050610d7d6060830184610d24565b95945050505050565b60006020820190508181036000830152610da08184610b15565b905092915050565b60006040820190508181036000830152610dc28185610bc3565b90508181036020830152610dd68184610bc3565b90509392505050565b60006020820190508181036000830152610df881610bfc565b9050919050565b60006020820190508181036000830152610e1881610c1f565b9050919050565b60006020820190508181036000830152610e3881610c42565b9050919050565b60006020820190508181036000830152610e5881610c65565b9050919050565b60006020820190508181036000830152610e7881610c88565b9050919050565b6000602082019050610e946000830184610d24565b92915050565b6000610ea4610eb5565b9050610eb08282611006565b919050565b6000604051905090565b600067ffffffffffffffff821115610eda57610ed96110c6565b5b610ee3826110f5565b9050602081019050919050565b6000819050602082019050919050565b600081519050919050565b600081519050919050565b6000602082019050919050565b600082825260208201905092915050565b600082825260208201905092915050565b600082825260208201905092915050565b6000610f6182610f68565b9050919050565b600073ffffffffffffffffffffffffffffffffffffffff82169050919050565b6000819050919050565b82818337600083830152505050565b60005b83811015610fbf578082015181840152602081019050610fa4565b83811115610fce576000848401525b50505050565b60006002820490506001821680610fec57607f821691505b6020821081141561100057610fff611097565b5b50919050565b61100f826110f5565b810181811067ffffffffffffffff8211171561102e5761102d6110c6565b5b80604052505050565b600061104282610f88565b915061104d83610f88565b92508261105d5761105c611068565b5b828206905092915050565b7f4e487b7100000000000000000000000000000000000000000000000000000000600052601260045260246000fd5b7f4e487b7100000000000000000000000000000000000000000000000000000000600052602260045260246000fd5b7f4e487b7100000000000000000000000000000000000000000000000000000000600052604160045260246000fd5b6000601f19601f8301169050919050565b7f4d6573736167652063616e6e6f7420626520656d707479000000000000000000600082015250565b7f46656520697320746f6f206c6f77000000000000000000000000000000000000600082015250565b7f417574686f722063616e6e6f7420626520656d70747900000000000000000000600082015250565b7f556e6174686f72697a6564206163636573730000000000000000000000000000600082015250565b7f466565206d757374206265206576656e00000000000000000000000000000000600082015250565b6111dc81610f88565b81146111e757600080fd5b5056fea2646970667358221220cee267ef529e2aaacf7d3a54dab4587b57a00db939687f1b03d0e329dddacbbf64736f6c63430008040033",
  "linkReferences": {},
  "deployedLinkReferences": {}
}